:020000040008F2
:0400000000480C2682
:200004007622761F17E01A2400011A2000031A20000C761F17E61800FFFD1800FFFE761FA6
:20001400174892089003610992089003520261059208900352036009761F17E0CC00F0FFBD
:200024001AA9050096006F08761F17E0CC00F0FF1AA904009600761F17E61A0000021A007B
:200034000001761F17ECCC00FFF0500A9600761AF6077700FF6900067622761F17E018209A
:20004400FFFC1820FFF31824FFFE761AFF690006190156C3FFFF0006190156C3FFFF0006D2
:20005400761BFFF0E20000BDE63006002942561676256F00761BFFF0E20000BDE630060035
:200064002942561676256F00761BFFF0E20000BDE63006002942561676256F00761BFFF0FF
:20007400E20000BDE63006002942561676256F00761BFFF0E20000BDE630060029425616BE
:2000840076256F00761BFFF0E20000BDE63006002942561676256F00761BFFF0E20000BD17
:20009400E63006002942561676256F00761BFFF0E20000BDE63006002942561676256F0033
:2000A400761BFFF0E20000BDE63006002942561676256F00761BFFF0E20000BDE6300600E5
:2000B4002942561676256F00761BFFF0E20000BDE63006002942561676256F00761BFFF0AF
:2000C400E20000BDE63006002942561676256F00761BFFF0E20000BDE6300600294256166E
:2000D40076256F00761BFFF0E20000BDE63006002942561676256F00761BFFF0E20000BDC7
:2000E400E63006002942561676256F00761BFFF0E20000BDE63006002942561676256F00E3
:2000F400761BFFF0E20000BDE63006002942561676256F00761BFFF0E20000BDE630060095
:200104002942561676256F00761BFFF0E20000BDE63006002942561676256F00761BFFF05E
:20011400E20000BDE63006002942561676256F00761BFFF0E20000BDE6300600294256161D
:2001240076256F00761BFFF0E20000BDE63006002942561676256F00761BFFF0E20000BD76
:20013400E63006002942561676256F00761BFFF0E20000BDE63006002942561676256F0092
:20014400761BFFF0E20000BDE63006002942561676256F00761BFFF0E20000BDE630060044
:200154002942561676256F00761BFFF0E20000BDE63006002942561676256F00761BFFF00E
:20016400E20000BDE63006002942561676256F00761BFFF0E20000BDE630060029425616CD
:2001740076256F00761BFFF0E20000BDE63006002942561676256F00761BFFF0E20000BD26
:20018400E63006002942561676256F00761BFFF0E20000BDE63006002942561676256F0042
:20019400761BFFF0E20000BDE63006002942561676256F00761BFFF0E20000BDE6300600F4
:2001A4002942561676256F00761BFFF0E20000BDE63006002942561676256F00761BFFF0BE
:2001B400E20000BDE63006002942561676256F00761BFFF0E20000BDE6300600294256167D
:2001C40076256F00761BFFF0E20000BDE63006002942561676256F00761BFFF0E20000BDD6
:2001D400E63006002942561676256F00761BFFF0E20000BDE63006002942561676256F00F2
:2001E400761BFFF0E20000BDE63006002942561676256F00761BFFF0E20000BDE6300600A4
:2001F4002942561676256F00761BFFF0E20000BDE63006002942561676256F00761BFFF06E
:20020400E20000BDE63006002942561676256F00761BFFF0E20000BDE6300600294256162C
:2002140076256F00761BFFF0E20000BDE63006002942561676256F00761BFFF0E20000BD85
:20022400E63006002942561676256F00761BFFF0E20000BDE63006002942561676256F00A1
:20023400761BFFF0E20000BDE63006002942561676256F00761BFFF0E20000BDE630060053
:200244002942561676256F00761BFFF0E20000BDE63006002942561676256F00761BFFF01D
:20025400E20000BDE63006002942561676256F00761BFFF0E20000BDE630060029425616DC
:2002640076256F00761BFFF0E20000BDE63006002942561676256F00761BFFF0E20000BD35
:20027400E63006002942561676256F00761BFFF0E20000BDE63006002942561676256F0051
:20028400761BFFF0E20000BDE63006002942561676256F00761BFFF0E20000BDE630060003
:200294002942561676256F00761BFFF0E20000BDE63006002942561676256F00761BFFF0CD
:2002A400E20000BDE63006002942561676256F00761BFFF0E20000BDE6300600294256168C
:2002B40076256F00761BFFF0E20000BDE63006002942561676256F00761BFFF0E20000BDE5
:2002C400E63006002942561676256F00761BFFF0E20000BDE63006002942561676256F0001
:2002D400761BFFF0E20000BDE63006002942561676256F00761BFFF0E20000BDE6300600B3
:2002E4002942561676256F00761BFFF0E20000BDE63006002942561676256F00761BFFF07D
:2002F400E20000BDE63006002942561676256F00761BFFF0E20000BDE6300600294256163C
:2003040076256F00761BFFF0E20000BDE63006002942561676256F00761BFFF0E20000BD94
:20031400E63006002942561676256F00761BFFF0E20000BDE63006002942561676256F00B0
:20032400761BFFF0E20000BDE63006002942561676256F00761BFFF0E20000BDE630060062
:200334002942561676256F00761BFFF0E20000BDE63006002942561676256F00761BFFF02C
:20034400E20000BDE63006002942561676256F00761BFFF0E20000BDE630060029425616EB
:2003540076256F00761BFFF0E20000BDE63006002942561676256F00761BFFF0E20000BD44
:20036400E63006002942561676256F00761BFFF0E20000BDE63006002942561676256F0060
:20037400761BFFF0E20000BDE63006002942561676256F00761BFFF0E20000BDE630060012
:200384002942561676256F00761BFFF0E20000BDE63006002942561676256F00761BFFF0DC
:20039400E20000BDE63006002942561676256F00761BFFF0E20000BDE6300600294256169B
:2003A40076256F00761BFFF0E20000BDE63006002942561676256F00761BFFF0E20000BDF4
:2003B400E63006002942561676256F00761BFFF0E20000BDE63006002942561676256F0010
:2003C400761BFFF0E20000BDE63006002942561676256F00761BFFF0E20000BDE6300600C2
:2003D4002942561676256F00761BFFF0E20000BDE63006002942561676256F00761BFFF08C
:2003E400E20000BDE63006002942561676256F00761BFFF0E20000BDE6300600294256164B
:2003F40076256F00761BFFF0E20000BDE63006002942561676256F00761BFFF0E20000BDA4
:20040400E63006002942561676256F00761BFFF0E20000BDE63006002942561676256F00BF
:20041400761BFFF0E20000BDE63006002942561676256F00761BFFF0E20000BDE630060071
:200424002942561676256F00761BFFF0E20000BDE63006002942561676256F00761BFFF03B
:20043400E20000BDE63006002942561676256F00761BFFF0E20000BDE630060029425616FA
:2004440076256F00761BFFF0E20000BDE63006002942561676256F00761BFFF0E20000BD53
:20045400E63006002942561676256F00761BFFF0E20000BDE63006002942561676256F006F
:20046400761BFFF0E20000BDE63006002942561676256F00761BFFF0E20000BDE630060021
:200474002942561676256F00761BFFF0E20000BDE63006002942561676256F00761BFFF0EB
:20048400E20000BDE63006002942561676256F00761BFFF0E20000BDE630060029425616AA
:2004940076256F00761BFFF0E20000BDE63006002942561676256F00761BFFF0E20000BD03
:2004A400E63006002942561676256F00761BFFF0E20000BDE63006002942561676256F001F
:2004B400761BFFF0E20000BDE63006002942561676256F00761BFFF0E20000BDE6300600D1
:2004C4002942561676256F00761BFFF0E20000BDE63006002942561676256F00761BFFF09B
:2004D400E20000BDE63006002942561676256F00761BFFF0E20000BDE6300600294256165A
:2004E40076256F00761BFFF0E20000BDE63006002942561676256F00761BFFF0E20000BDB3
:2004F400E630060029425616E28000BEFFF176177602761BFFF0E20000BDE630060029423A
:20050400561676256F00764805B59A01D400D5019B0A764805C376C702823E67764805153B
:2005140000067622761F174C1A2200011A2200041A2200081A2200101A2200201A2300018A
:200524001A2300041A2600011A2600021A2600041A2600081A2600101A2600201A26004037
:200534001A2600801A2800011A2800021A2800041A2800081A2800101A2800201A2800409A
:200544001A2A00011A2A00021A2E00011A3000011A3000021A3200011A3200021A34000142
:200554001A3600011A3600021A3C00011A3C00021A3C00041A3E00011A3E00021A3E0004CC
:200564001A3E00081A3E00101A3E00201A3E0040761F174D1A0000011A0000021A00000451
:200574001A0000081A0000101A0000201A0000401A0600021A0600011A0300011A03000207
:200584001A0800011A0A00011A0C0001761AFF69000676220200761F174C1E221E261E288E
:200594001E2A1E2E1E301E321E341E361E3C1E3E761F174D1E001E021E061E081E0A1E0CE6
:2005A400761AFF6900067622761F01C0CC25FF0050559625CC25FF0050AA9625761AFF695E
:2005B4000006FE027622761F01C0922990079641924150689629761AFF69FE820006FE0E36
:2005C4007D4C7C4B974A9649761F1748920890030EA91EA69249900380A906A60FA76021B1
:2005D400CC320002FFC00EA91EA692499004FFC180A906A60FA76015884A9214907F0EA960
:2005E4000FA6600F884BCC140300FFC70EA90FA66008884C9222903F0EA90FA6FFE1009F41
:2005F400920890030EA91EA69249900380A906A60FA7601ACC320002FFC00EA91EA69249B7
:200604009004FFC180A906A60FA761166F0D764806B56F12764806C16F0F764806ED6F0CDB
:20061400764807106F09924961F6520161F7520261EF520561F67622761F1748884A921446
:20062400907F0EA90FA66008884BCC140300FFC70EA90FA66140180EFFFDF63C7700182245
:20063400FFC05603084BCA4A0EA91E4602001E4402640F446932761F1748180EFFFEF62126
:20064400770006461E141A0E00018F0007D0A842921690010EA91E486F08921690010EA96B
:200654001E4802015641004202010F486103064260F5761A92495C4B934AFF69764807408D
:20066400964D924D600A020107441E4402640F4466D36F0356BF014D924D61207622924CFD
:20067400523F610A761F17489C01CD22FFC0903FCAA896226F08761F1748903FCD22FFC04A
:20068400CAA896221A0E0002F6647700924CCD22FFC0903FCAA89622761AFE8EFF69000622
:2006940076220200761F17C019011E10020019011E12020019011E14020019011E1602000C
:2006A400761F17C119011E10020019011E12020019011E14020019011E16761A9A00FF6905
:2006B40000067622761F1748CC08FFFC500296081A320001761AFF6900067622761F1748FE
:2006C4001808FFF7F6FA7700F63277001808FFFC1A320001761AFF690006FE022B418F0099
:2006D40007D0A8A97640A0486F031A3100018F0001FF761F1748A8A90F3068F88F0003FF7E
:2006E400A8A90F3060FE0A419241520468F1FE8200067622761F17481832FFFE1832FFFD9C
:2006F400761AFF69764806D17622CC08FFFC50019608761A6F0E76221A2E0002761AFF691C
:20070400764806D17622CC08FFFC50019608761A402E6DF2FF6900067622761F1748183249
:20071400FFFE1A320002761AFF69764806D17622CC08FFFC50019608761A402E6C02762590
:20072400FF6900067622761F174D1836FFFC761A7621FF6900067622761F174DCC36FFFC4A
:2007340050029636761F1748180EFFFD180EFFFE761A7621FF690006FE0A7C499748964730
:2007440002621E4202041E462D4835640EA91E446F0D021907441E446F10023207441E449C
:200754006F0C024B07441E446F089249520161F2520261F4520361F67622761F174D1A0C0C
:200764000001761F179C1A1400011A140002CC00FFF050059600CC00FF0F50509600CC004B
:200774000FFF1AA9500096006F0ECC28FFF0500196286F11CC28FFF0500296286F0C182811
:20078400FFF06F09924761F7520161FA520261EE520561F6CC240FFF1AA9A0009624182467
:20079400FFF08F05E7080642A3C4910F18AB000018AAFFF0CAABCBAA1EC49246960C064480
:2007A4008F05E710910FA3C418AB000018AAFFF0CAABCBAA1EC4CC00F0FF1AA90A00960045
:2007B400CC00FF0F50A09600CC000FFF1AA9A0009600CC00FFF0500A9600761A8F05E71428
:2007C40006C49B009003FF5861FC06C428AB00022BAA9B009003BE00B6000FAB6002B60180
:2007D40093A76102BE0192A6FE8AFF690006FE08761F030092325201605D761F002C922096
:2007E400761F0300961E761F002C9200761F0300961F92186015761F03009223964492240D
:2007F4009643761F0300921F9642921E9641761F03009225761F2042943A96476F0F921F44
:200804009644921E9643761F03009226964292279641761F2042923A96472B455CADDC8440
:200814005CA43B01A8A981458AA9761F030092C496209A029B028F00C02076480D649247EA
:200824009E459CFF96460A45520060E9761F03009229761F03007218761F03009221761F1B
:20083400030054186707761F03009222761F03009618FE8800060006761F0100CC00C00081
:200844005030960018010FFF761F010128231388062091001E20761F01002B041808C3A09D
:200854001809C3A0761F0101282B7D00282D7D00282F7D0028317D0056BF96002802090639
:200864001807FF3F1809FFF0761F0100180C7000761F01011811C0001813C000761F0102DA
:20087400922490801AA91A019624CC26FFCF50309626CC30F0F01AA901019630CC2EFFF0BA
:200884005001962E761F01001814F8007622761F01022B00CC04F0001AA90FFF9604180DDA
:20089400FF81761F0103CC03FCF0500496031804FCF092002B00761F01021802F000761F87
:2008A4000103CC07FFC0501096072B092B0B1808FFFE761F01001820FF5F1838FFF018385F
:2008B400FF0F1838F0FF18380FFF1839FFF0182DFF8D761A7622761F174C1A230004761A77
:2008C400761F030092196008FF6976480A6A761F030056BF0119FF6976480A2E761F030012
:2008D400921A600776480A4E761F030056BF011A76480A03761F03009228761F03009618B0
:2008E4000006000628A900508F48000428A800008F00A00076480E8928A9000028A80000F7
:2008F4008F40A0008F00A00076480E897640A0000006FE0E7D4C7C4B974A9649761F174845
:20090400920890030EA91EA69249900380A906A60FA76027CC320002FFC00EA91EA6924996
:200914009004FFC180A906A60FA7601B884A9214907F0EA90FA66015884BCC140300FFC785
:200924000EA90FA6600E884C921590070EA90FA6600888519222903F0EA90FA6FFE100A6A5
:20093400920890030EA91EA69249900380A906A60FA7601ACC320002FFC00EA91EA6924973
:200944009004FFC180A906A60FA761166F0D764806B56F12764806C16F0F764806ED6F0C98
:20095400764807106F09924961F6520161F7520261EF520561F67622761F1748884A921403
:20096400907F0EA90FA6600E884BCC140300FFC70EA90FA66007884C921590070EA90FA6BD
:200974006141180EFFFD1822FFC02901254C1EA75603084B88A906A7AFA6AF4A1E46020008
:200984001E4402640F446930761F1748180EFFFD06461E141A0E00018F0007D0A8429216EA
:2009940090010EA91E486F08921690010EA91E4802015641004202010F486103064260F591
:2009A400761A92495C4B934AFF6976480740964D924D600A020107441E4402640F4466D507
:2009B4006F0356BF014D924D612076229251523F610A761F17489C01CD22FFC0903FCAA8F7
:2009C40096226F08761F1748903FCD22FFC0CAA896221A0E0002F66477009251CD22FFC0BD
:2009D400903FCAA89622761AFE8EFF690006761F0300923960237622761F174C1A3C0001B3
:2009E4009A00D4009B00FF6976480B01761F174C1A3C00029A01D4009B0076480B01761FFF
:2009F400174C1A3C00049A029B00D40076480B01761A761F030056BF0139FF6900067622D4
:200A0400761F01D0061018A97FFF18A8FFF81AA9800051021E10CC11FE0F50509611CC108F
:200A1400FE00500796101A0700201807FFF01A070040180AFFFCCC3B0FFFCCA90FFFCD3B5A
:200A2400F000CAA8963B1A0000041809FFE0761AFF6900067622761F01D218107FFF181194
:200A3400FFF8CC11FE0F50509611CC10FE0050079610180AFFFCCC3B0FFFCCA90FFFCD3BE6
:200A4400F000CAA8963B1A0000041809FFE0761AFF6900067622761F174C1A3C0001761FC7
:200A540001D0CC01FFF050029601FF69764809DB7622761F01D01A0000808F004E1EFF6907
:200A6400A8A97640A048761AFF6900067622761F174C1A3C0002761F01D2CC01FFF0500227
:200A74009601FF69764809DB7622761F01D21A0000808F004E1EFF69A8A97640A048761A45
:200A8400FF6900068F000C00761F0300A8000200761F003019011E022B062B071A04001077
:200A94001A0400200200761F03001E028F000C08A8088F000C10A810761F003019011E0A8D
:200AA400761F0030020019011E12761F00302B0E2B0F761F00302B162B17761F00301A0CB6
:200AB4000010761F00301A140010761F00301A0C0020761F00301A140020761F0300020057
:200AC4001E0A1E120006FE08E2030146E2030044A84206441EE48A4206461EF4E2AF004424
:200AD400E2AF0146E70000087700E68800007700E20300488A428AC406481ED48A428AC43E
:200AE4002BF48A428AC42BFC8A428AC41AE400108A428AC41AE400208A428AC418E4FBFF22
:200AF4008A428AC418E4F7FF8A428AC41AE440008A4202001ED4FE880006FE067C45974492
:200B040096438F0705943B012D433106A8A981AB1E428AA9924460079245600592C4FFC741
:200B140096466F0492C490FF964676226F4B761F01D0CC460FFFCD3BF000CAA8963B9244C8
:200B2400761F175D9001CD28FFFECAA8962892459001FF87CD28FEFFCAA896286F39761FA8
:200B340001D2CC460FFFCD3BF000CAA8963B9244761F175D9001FF80CD28FFFDCAA8962863
:200B440092459001FF88CD28FDFFCAA896286F20761F01D4CC460FFFCD3BF000CAA8963B2D
:200B54009244761F175D9001FF81CD28FFFBCAA8962892459001FF89CD28FBFFCAA8962863
:200B64006F07924361B5520161CB520261E2761AFE86FF690006FE028F007029A8427622CE
:200B740056BF68C4761AFF69FE82000676228F080CCA761F0035A800761A761F00331A2297
:200B840000017623000129102920FF6900067622761F174C1A3000017700761F01C81800FE
:200B9400FF7F1800FFBF1800FFDF1800FFEF1800FFF71A0000071801FFBF1A0100201A0195
:200BA40000021801FFFE1802FF00CC03FF00500196031A0F0018180CBFFF180CDFFF1A0AFF
:200BB40080001A0A40001A0A20001A0B2000761AFF6900067622761F01F0180DDFFF18235A
:200BC400F3FFCC09F3FF1AA904009609761AFF690006FE02764805B57622761F174C1A22B0
:200BD40000041A2E0001761A7622761A9A01D400D5009B0AFF6956BF0141764808FD7622F9
:200BE400761F174C1A2200081A2200101A2200201A230001761A7622761F1748182CFFF878
:200BF400761A3B1076260000762F0000FF6976480E1776480E3F76480B8B76480BBE7648D6
:200C04000A8676480EDD7622761F174C1A2600011823FFFB761AFF6976480EA67622761FFA
:200C140001F002001E021E04761F01F11E021E04761F01F01815FFBF1815FF7F761AFF69AE
:200C2400FE82000628AD0400FF69561F5616561AE61002002940761F00002902761B764828
:200C34000EF252006142762228A910BC28A800080901611B76C810BC29046F0F9B0024A9FB
:200C4400DF016C04290424A8DF011EA6F7A1248606A781A109011EA724A96303FF5C3B04F6
:200C540059A9DF010009FFEC28A9FFFF28A8FFFF090161058F3FFFFF76480E65761A764852
:200C64000EF428A9FFFF28A8FFFF0901610E76FFFFFF6F06DF01C3BD1EA73E67C5BE24A956
:200C7400DF0124A8FF5860F776480EBA76480DF0FE04E2030144E2030042E8024BA0E2AF0C
:200C840001428F00C000E8092000E302084476480AC7761F00301804FFEF7622761F0035BC
:200C94008F080DAAA80C761A761F00331A22004076230001FF69FE8400063B10761F0033CD
:200CA4001A2200402910FF690006FE022B413B109A00761F003346226C029A019641182272
:200CB400FFBFF6057700762FFFFE56BF01212910FF69FE820006FE02964192416104764823
:200CC4000CA16F0376480CA9FE820006761BFFF00005ABBDA8BDA0BDC2BDC3BDE20000BDAB
:200CD400E20300BDE20301BDE20302BDE20303BDE6300600FE02FF6929425616761F00334F
:200CE400922296411822FFBEF6057700762FFFFE56BF0121762300012910FF69764807DB48
:200CF4003B10761F0033924196227622761F01D01A040001761A761F003356BF0121FE8216
:200D0400E2AF03BEE2AF02BEE2AF01BEE2AF00BEE28000BEC5BEC4BE83BE8ABE87BE000397
:200D14003B30FFF1761776020006FE042842CCCD28413E4CE8021640E2030044761F030060
:200D24002B312B32764808E676480BCD761F20428A3802001EC47648084076480ED4E2AFE0
:200D34000042E2AF014476480C7C761F20428A38BE0006C46002BE01761F03007E327648D9
:200D44000CA176480B7A76480ECC761F030092326111761F20428A38B600BE0006C46002E0
:200D5400BE0192A66002B601761F03007F31923260F1764808E576480ED49A00FE840006A5
:200D6400FE0697449643A8429244520160192B4592435445653A3B01761F01C8CC0A1F001F
:200D7400FFC7521061FA854507428AA9880992C43CA67E090A459243544562EF6F262B4533
:200D84003B016F1C2B46924652016217761F01C8CC0A1F00FFC7521061FA854507428AA957
:200D94008009560303462DA992C4FF643CA77F090A469246520165EB0A45934392A8FFCE23
:200DA40094A8FFA0544562DFFE860006761BFFF00005ABBDA8BDA0BDC2BDC3BDE20000BDA3
:200DB400E20300BDE20301BDE20302BDE20303BDE6300600FE02FF6929425616761F00336E
:200DC400922296411822FFBFF6057700762FFFFE56BF0121762300012910FF6976480D1823
:200DD4003B109241761F00339622FE82E2AF03BEE2AF02BEE2AF01BEE2AF00BEE28000BE7F
:200DE400C5BEC4BE83BE8ABE87BE00033B30FFF17617760277006F00B2BD761F030059A9CA
:200DF400922A610D28ABFFFF28AAFFFF28A9FFFF28A8FFFF0FAB6103767FFFFF761F0300CE
:200E0400C5343E67761F0300062E61041EA792A13E67761F0300062C61031EA73E6776480C
:200E14000DEE8BBE00063B10761F00331820FFFE2B222B242B262B282B2A2B2C2B2E2B308C
:200E24002B322B342B362B382B232B252B272B292B2B2B2D2B2F2B312B332B352B372B3902
:200E3400FF690006761F00331A2000012821FFFF2910FF690006FE068F080EF8A8428F0025
:200E44000D00A844020607421E42020607441E4476222B45924552DD670D83448A42A0A9D1
:200E5400C4840902A8421E44C2C50A45924552DD68F5761A761F00331A200001FF69FE8627
:200E64000006B2BDAABDA2BDFE0882A4D1005ACB6F155CAD2901560303A107A3DC88090244
:200E74005CA483A9020876480E89064261068A44834676480E895ACBD90192A254A166EAC0
:200E8400FE8882BE86BE8BBE00065200A8ABC5A4610788A9DE815C857C87000EFFFE88A9CF
:200E94000FA6610F5300610D9DFF5CA876BFFFFE92859687000EFFFE92859687000CFFF810
:200EA400A9A400067622761F01E456BF230656BF250756BF3B0856BF0E0956BF0F0A56BF83
:200EB4001A0B56BF3A0C761AFF690006020028ABFFFF28AAFFFF19010FAB60049A00D40057
:200EC4006F05A9A492C4A9A4DC0276480D190006761F0300923860047608293092BE0006EF
:200ED40076083B3092BE761F030096381838000100067622761F01F01820FFFCCC06FFFCEA
:200EE40050019606761AFF690006761F0300A8360006761F0300A834000600069A01000666
:020EF4000006F6
:200EF80004E6000804E6000804E6000804E6000804E6000804E6000804E6000804E600084A
:200F080004E6000804E6000804E6000804E6000804E6000800540008005E000800680008DD
:200F180000720008007C00080086000800900008009A000800A4000800AE000800B80008D1
:200F280000C2000800CC000800D6000800E0000800EA000800F4000800FE00080108000840
:200F380001120008011C00080126000801300008013A000804E6000801440008014E000818
:200F48000158000801620008016C00080176000801800008018A000801940008019E000869
:200F580001A8000801B2000801BC000801C6000801D0000801DA000801E4000801EE0008D9
:200F680001F8000802020008020C00080216000802200008022A00080234000804E6000898
:200F780002520008025C000804E6000804E6000804E6000804E6000804E6000804E60008EB
:200F88000266000802700008027A00080284000804E6000804E6000804E6000804E6000885
:200F9800028E00080298000802A2000802AC000802B6000802C0000804E6000804E600082F
:200FA80002CA000802D4000804E6000804E6000804E6000804E6000804E6000804E60008CB
:200FB80002DE000802E8000802F2000802FC00080306000803100008031A000803240008BD
:200FC800032E00080338000803420008034C00080356000803600008036A00080374000829
:200FD800037E00080388000803920008039C000803A6000803B0000803BA000803C4000899
:200FE80003CE000803D8000803E2000804E6000804E6000804E6000803EC000803F6000872
:200FF80004E6000804E6000804E6000804E6000804E6000804E6000804E6000804E6000849
:2010080004E6000804E6000804E6000804E6000804E6000804E6000804E6000804E6000838
:2010180004E6000804E6000804E6000804E6000804E6000804E6000804E6000804E6000828
:2010280004E6000804E6000804E6000804E6000804E60008023E00080248000804E6000862
:201038000400000804E6000804E6000804E60008040A000804140008041E00080428000822
:2010480004E6000804E6000804E6000804E6000804E6000804E6000804E6000804E60008F8
:2010580004E6000804E6000804320008043C00080446000804500008045A000804E6000808
:2010680004640008046E000804E6000804E600080478000804E6000804E6000804E6000840
:2010780004E6000804E6000804E6000804E6000804E6000804E6000804E6000804E60008C8
:2010880004820008048C00080496000804A0000804E6000804E6000804E6000804E600080C
:2010980004E6000804E6000804E6000804E6000804E6000804E6000804E6000804E60008A8
:2010A80004E6000804AA000804B4000804BE000804C8000804E6000804D2000804DC00086A
:0610B800C01C0000000254
:2010BC00FFFFC02A00000001FFFEC02C000000000000FFFEC02E000000000000FFF7C02180
:2010CC0000002EDF0000FFFFFEFE00020000000000000001FFFFC01900000000FFFFC01A4B
:2010DC0000000000FFFEC03400000EF10008FFFEC03600000EF10008FFFFC0330000000011
:1410EC00FFFFC03900000000FFFFC03000000000000000000B
:00000001FF
